:100000000C9446000C9465000C9465000C946500FB
:100010000C9465000C9465000C9465000C946500CC
:100020000C9465000C9465000C9465000C946500BC
:100030000C9465000C9465000C9465000C946500AC
:100040000C9465000C9465000C9465000C9465009C
:100050000C9465000C9465000C9465000C9465008C
:100060000C9465000C9465000C9465000C9465007C
:100070000C9465000C9465000C9465000C9465006C
:100080000C9465000C9465000C94650011241FBE4F
:10009000CFEFD0E1DEBFCDBF12E0A0E0B1E0E2E4FF
:1000A000F4E100E00BBF02C007900D92A433B1074A
:1000B000D9F712E0A4E3B2E001C01D92AC33B1075E
:1000C000E1F70E94B5000C941F0A0C94000084B75D
:1000D000806884BF84B7806884BF8FE08ABB8FEF5D
:1000E0008BBB87EE87BB80EE88BB82E18093640088
:1000F000809365000895C09882E0982F9A95F1F753
:10010000C09A9AE19A95F1F7C098C19A8A95F1F749
:10011000C19840E050E02BE030E061E070E0C19A2F
:10012000B39B09C0CB01022E02C0880F991F0A940D
:10013000E2F7480F591FC198215030408FEF2F3FF1
:10014000380769F7C19AB39B02C04FEF5FEFC198C0
:10015000C19A82E0982F9A95F1F7C198C19A8A9531
:10016000F1F7C198C09ACA010895DF92EF92FF9209
:100170000F931F93CF93DF930E9467000E94C701E4
:10018000C09AC19888EE93E028EC30E0F9013197ED
:10019000F1F70197D9F780E091E061E00E943C021D
:1001A000EE24FF248701DD24D394C8ECD0E00E9424
:1001B0007B0090933902809338022FEF8F3F920794
:1001C00009F442C020913B02243050F42F5F209369
:1001D0003B02A0E0B0E0E80EF91E0A1F1B1F3EC064
:1001E000C801B70122E096958795779567952A957E
:1001F000D1F7709339026093380280E090E00E945A
:10020000660720E030E040E85EE30E94E805609386
:10021000340270933502809336029093370280E166
:1002200091E062E00E943C026091340270913502DC
:10023000809136029091370242E00E94FF0288E1ED
:1002400091E00E947B0205C08CE191E062E00E9497
:100250003C0210923B02EE24FF24870190913A0267
:10026000992321F0809165008F7E03C08091650005
:100270008061809365009D2590933A0280ED97E020
:10028000FE013197F1F70197D9F7109239021092D8
:1002900038028DCF87E087BBC09A83E58DB9C09ABD
:1002A00008958FB9779BFECF8FB108956E9887B36D
:1002B000897F87BB089590E0969587959695879559
:1002C00081700895A0E0B0E0BC01CD010E946607F6
:1002D00020E030E040E85EE30E94E80508951F93C7
:1002E000C0988FEF0E945101182F8FEF0E9451018B
:1002F000C09A212F30E012FF05C020E030E0C90194
:100300001F910895982F80E0282B392B287F3F7765
:1003100043E0369527954A95E1F7F1CF87B3806E94
:1003200087BB8AB38F608ABBC6980895C59AC59863
:100330000895662311F0C79A01C0C7988BBB85E367
:100340008A95F1F7C59AC59808951F93182F82953D
:100350008F7061E00E949901812F8F7061E00E948F
:10036000990185E88A95F1F71F9108951F93182F39
:1003700082958F7060E00E949901812F8F7060E0FC
:100380000E94990185E88A95F1F71F910895EF92EF
:10039000FF920F931F930E948E0184EF91E028EC4F
:1003A00030E0F9013197F1F70197D9F783E060E088
:1003B0000E949901C59AC59880E2E82E8EE4F82E35
:1003C000C7010197F1F7C59AC59804EF11E0C8017C
:1003D0000197F1F7C59AC598C7010197F1F782E037
:1003E00060E00E949901C8010197F1F788E20E943C
:1003F000B601C8010197F1F780E10E94B601C8017A
:100400000197F1F786E00E94B601C8010197F1F764
:100410008CE00E94B601C8010197F1F781E00E94CB
:10042000B601C7010197F1F71F910F91FF90EF906F
:1004300008950F931F93CF93DF93082F0E94B60167
:1004400080E991E00197F1F710E0C0E9D1E080E2A6
:100450000E94A501CE010197F1F71F5F1431B9F792
:10046000802F0E94B60180E991E00197F1F7DF91BA
:10047000CF911F910F910895CF93DF93EC016130DD
:1004800011F480E803C0623039F480EC0E94B601B8
:1004900003C00E94A501219688818823D1F7DF91AE
:1004A000CF9108950F931F93CF93DF93EC01862F85
:1004B000142F022F0E94B60108C0002311F080E122
:1004C00001C084E10E94B60111501123B1F703C0AD
:1004D0000E94A501219688818823D1F7DF91CF91D1
:1004E0001F910F910895883228F46111806480680B
:1004F0000E94B6010895CF93DF93EC0103C00E94E0
:10050000A501219688818823D1F7DF91CF910895A5
:10051000EF92FF920F931F93DF93CF9300D000D001
:1005200000D0CDB7DEB78C017B01FE01319686E0AD
:10053000DF011D928A95E9F7FE01369698010DC0FC
:10054000C9016AE070E00E94D4098083C9016AE0B1
:1005500070E00E94D4099B0131972115310581F784
:10056000BFEFEB16BFEFFB0681F420E030E0AE01F9
:100570004F5F5F4F02C02F5F3F4FFA01E20FF31F43
:1005800080818823C1F389011BC00A30110518F44A
:1005900005E010E015C00436110518F404E010E081
:1005A0000FC0E3E0083E1E0718F403E010E008C0A7
:1005B0000051174218F001E010E002C002E010E024
:1005C0007E010894E11CF11CE00EF11E08C0D70169
:1005D0008D917D01805D0E94A5010F5F1F4F063048
:1005E0001105ACF326960FB6F894DEBF0FBECDBF53
:1005F000CF91DF911F910F91FF90EF900895AF92EF
:10060000BF92CF92DF92EF92FF920F931F93DF93EF
:10061000CF93CDB7DEB72C970FB6F894DEBF0FBEE1
:10062000CDBF7B018C01D42E0E9412045B0180E0BF
:1006300090E00E9466079B01AC01C801B7010E94CF
:100640008A0521E0D21669F420E030E040E251E46E
:100650000E94E8050E9412048B0165E0C62ED12C91
:1006600053C0A2E0DA1669F420E030E048EC52E42E
:100670000E94E8050E9412048B0154E0C52ED12C83
:1006800043C0B3E0DB1669F420E030E04AE754E40D
:100690000E94E8050E9412048B0143E0C42ED12C75
:1006A00033C0E4E0DE1669F420E030E44CE156E4C7
:1006B0000E94E8050E9412048B0132E0C32ED12C67
:1006C00023C0F5E0DF1669F420E030E543EC57E4A1
:1006D0000E94E8050E9412048B0121E0C22ED12C59
:1006E00013C026E0D21629F0CC24DD2400E010E06F
:1006F0000BC020E030E543EC57E40E94E8050E947F
:1007000012048B01CC24DD24FE01319686E0DF014A
:100710001D928A95E9F7FE01369695010DC0C90133
:100720006AE070E00E94D4098083C9016AE070E049
:100730000E94D4099B0131972115310581F7FE01F3
:10074000379686E0DF011D928A95E9F7FE013C9617
:1007500098010DC0C9016AE070E00E94D40980834D
:10076000C9016AE070E00E94D4099B01319721150C
:10077000310581F7BAE0AB16B10418F405E010E0DA
:1007800019C0E4E6AE16B10418F404E010E012C09B
:10079000F8EEAF16F3E0BF0618F403E010E00AC06D
:1007A00020E1A21627E2B20618F001E010E002C034
:1007B00002E010E07E010894E11CF11CE00EF11E45
:1007C000D7018D917D01805D0E94A5010F5F1F4FB4
:1007D00006301105A9F78EE20E94A50197E0E92EE7
:1007E000F12CEC0EFD1EEC0CFD1C8601F701819135
:1007F0007F01805D0E94A5010F5F1F4F063011052C
:10080000A9F72C960FB6F894DEBF0FBECDBFCF91DF
:10081000DF911F910F91FF90EF90DF90CF90BF90ED
:10082000AF900895EF92FF920F931F937B018C017D
:1008300020E030E040E05FE40E94E20688238CF094
:10084000C801B70120E030E040E05FE40E948A0583
:100850000E9412079B01AC0120503040404050489C
:1008600006C0C801B7010E9412079B01AC01B90183
:10087000CA011F910F91FF90EF900895A0E0B0E0A2
:10088000E4E4F4E00C94E809DC012B01FA019C910A
:10089000923008F439C1EB018881823008F433C109
:1008A000943069F4843009F02FC111969C9111970E
:1008B0008981981709F428C1ABE2B1E025C18430E1
:1008C00009F421C18230A9F4923009F01DC19A01C6
:1008D000AD0188E0EA010990AE01E90109929E01AB
:1008E0008150C1F7E201898111969C91892381830E
:1008F00008C1923009F407C112962D903C901397CD
:10090000EB018A819B811496AD90BD90CD90DC90D7
:100910001797EC80FD800E811F819101281B390BF8
:10092000B90137FF04C066277727621B730B60325B
:1009300071050CF061C0121613066CF53701480101
:10094000062E04C096948794779467940A94D2F7FD
:1009500021E030E040E050E004C0220F331F441F8C
:10096000551F6A95D2F721503040404050402E210B
:100970003F2140235123211531054105510521F027
:1009800021E030E040E050E079018A01E628F728D4
:10099000082919293CC0232BD1F1260E371E350119
:1009A0004601062E04C096948794779467940A941F
:1009B000D2F721E030E040E050E004C0220F331FC6
:1009C000441F551F6A95D2F7215030404040504097
:1009D0002A213B214C215D2121153105410551057D
:1009E00021F021E030E040E050E059016A01A62802
:1009F000B728C828D9280BC0821593052CF01C01F4
:100A0000AA24BB24650103C0EE24FF2487011196AC
:100A10009C91D20111968C91981709F445C09923A5
:100A200039F0A80197012A193B094C095D0906C054
:100A3000A60195012E193F09400B510B57FD08C027
:100A400011823382228224833583468357831DC0DB
:100A500081E081833382228288279927DC01821BEF
:100A6000930BA40BB50B84839583A683B7830DC02A
:100A7000220F331F441F551F24833583468357831A
:100A8000828193810197938382832481358146817A
:100A90005781DA01C9010197A109B1098F5F9F4F01
:100AA000AF4FBF4328F30BC0918333822282EA0CFD
:100AB000FB1C0C1D1D1DE482F5820683178383E059
:100AC0008083248135814681578157FF1AC0C9012F
:100AD000AA2797FDA095BA2F81709070A070B07072
:100AE0005695479537952795822B932BA42BB52B9D
:100AF00084839583A683B7838281938101969383B0
:100B00008283DF0101C0D201CD01CDB7DEB7E2E1C2
:100B10000C94040AA0E2B0E0E0E9F5E00C94F409DA
:100B200069837A838B839C832D833E834F8358878D
:100B3000E9E0EE2EF12CEC0EFD1ECE010196B70180
:100B40000E9403098E010F5E1F4FCE010596B8016A
:100B50000E9403098A8991E089278A8BC701B8011D
:100B6000AE01475E5F4F0E943E040E942E08A09691
:100B7000E6E00C94100AA0E2B0E0E1ECF5E00C94A1
:100B8000F40969837A838B839C832D833E834F830F
:100B90005887F9E0EF2EF12CEC0EFD1ECE010196E8
:100BA000B7010E9403098E010F5E1F4FCE0105960B
:100BB000B8010E940309C701B801AE01475E5F4F4B
:100BC0000E943E040E942E08A096E6E00C94100AB3
:100BD000A0E2B0E0EEEEF5E00C94E80969837A83D8
:100BE0008B839C832D833E834F835887CE01019650
:100BF000BE01675F7F4F0E940309CE010596BE01CB
:100C00006F5E7F4F0E9403099985923088F0898931
:100C10008230C8F0943019F4823051F404C084302A
:100C200029F4923081F48BE291E0C6C0923049F40D
:100C300020E09A858A89981321E02A87CE010996B7
:100C4000BBC0823049F420E09A858A89981321E05C
:100C50002A8BCE014196B0C02D843E844F845888A3
:100C60006D887E888F88988CEE24FF248701AA24C3
:100C7000BB24650140E050E060E070E0E0E0F0E0BF
:100C8000C10181709070892BE9F0E60CF71C081DFA
:100C9000191D9A01AB012A0D3B1D4C1D5D1D80E005
:100CA00090E0A0E0B0E0E614F7040805190520F490
:100CB00081E090E0A0E0B0E0BA01A901480F591F1F
:100CC0006A1F7B1FAA0CBB1CCC1CDD1C97FE08C036
:100CD00081E090E0A0E0B0E0A82AB92ACA2ADB2A85
:100CE0003196E032F10549F0660C771C881C991C9E
:100CF0005694479437942794C3CFFA85EA892B8971
:100D00003C898B859C85280F391F2E5F3F4F17C06C
:100D1000CA0181709070892B61F016950795F79440
:100D2000E79480E090E0A0E0B0E8E82AF92A0A2BF6
:100D30001B2B76956795579547952F5F3F4F77FD0E
:100D4000E7CF0CC0440F551F661F771F17FD41608A
:100D5000EE0CFF1C001F111F21503040403090E06E
:100D6000590790E0690790E4790760F32B8F3C8F77
:100D7000DB01CA018F779070A070B070803491054C
:100D8000A105B10561F447FD0AC0E114F1040105B4
:100D9000110529F0405C5F4F6F4F7F4F40781A8EEE
:100DA000FE1711F081E08A8F4D8F5E8F6F8F78A3D1
:100DB00083E0898FCE0149960E942E08A096E2E139
:100DC0000C94040AA8E1B0E0E8EEF6E00C94F40913
:100DD00069837A838B839C832D833E834F835887DB
:100DE00089E0E82EF12CEC0EFD1ECE010196B70134
:100DF0000E9403098E010F5E1F4FCE010596B801B8
:100E00000E9403098985823040F08989823028F068
:100E1000C701B8010E947B0901C08FEF6896E6E028
:100E20000C94100AACE0B0E0E8E1F7E00C94F809AB
:100E300069837A838B839C83CE010196BE016B5FAD
:100E40007F4F0E9403098D81823061F1823050F121
:100E5000843021F48E81882351F12EC02F81388572
:100E600037FD20C06E812F3131051CF06623F9F06B
:100E700023C08EE190E0821B930B29853A854B8538
:100E80005C8504C056954795379527958A95D2F786
:100E90006623B1F050954095309521953F4F4F4FC7
:100EA0005F4F0EC020E030E040E050E009C02FEF7F
:100EB0003FEF4FEF5FE704C020E030E040E050E854
:100EC000B901CA012C96E2E00C94140AA8E0B0E043
:100ED000ECE6F7E00C94F0097B018C0161157105DB
:100EE0008105910519F482E0898360C083E08983DC
:100EF0008EE1C82ED12CDC82CB82ED82FE820F8364
:100F00001887C801B7010E94DF07FC013197F7FF7E
:100F10003BC0222733272E1B3F0B57016801022EAF
:100F200004C0D694C794B794A7940A94D2F740E02B
:100F300050E060E070E081E090E0A0E0B0E004C04C
:100F4000880F991FAA1FBB1F2A95D2F70197A109E5
:100F5000B1098E219F21A023B1230097A105B105DE
:100F600021F041E050E060E070E04A295B296C2903
:100F70007D294D835E836F8378878EE190E08E1BA1
:100F80009F0B9C838B8312C0309781F00E2E04C080
:100F9000EE0CFF1C001F111F0A94D2F7ED82FE8297
:100FA0000F831887CE1ADF0ADC82CB821A82CE0129
:100FB00001960E942E082896EAE00C940C0AEF9203
:100FC000FF920F931F937B018C0180E0E81680E075
:100FD000F80681E0080780E0180788F48FEFE8162C
:100FE000F1040105110531F028F088E090E0A0E05F
:100FF000B0E017C080E090E0A0E0B0E012C080E078
:10100000E81680E0F80680E0080781E0180728F07D
:1010100088E190E0A0E0B0E004C080E190E0A0E0D2
:10102000B0E020E230E040E050E0281B390B4A0BF2
:101030005B0B04C016950795F794E7948A95D2F751
:10104000F701ED5CFE4F8081281B310941095109F0
:10105000C9011F910F91FF90EF900895DF92EF92D9
:10106000FF920F931F93FC01E480F58006811781A6
:10107000D1808081823048F480E090E0A0E1B0E04F
:10108000E82AF92A0A2B1B2BA5C0843009F49FC03B
:10109000823021F4EE24FF24870105C0E114F1041D
:1010A0000105110519F4E0E0F0E096C0628173815A
:1010B0009FEF623879070CF05BC022E83FEF261BF8
:1010C000370B2A3131052CF020E030E040E050E0D1
:1010D0002AC0B801A701022E04C0769567955795DE
:1010E00047950A94D2F781E090E0A0E0B0E004C018
:1010F000880F991FAA1FBB1F2A95D2F70197A10934
:10110000B1098E219F21A023B1230097A105B1052C
:1011100021F081E090E0A0E0B0E09A01AB01282B43
:10112000392B4A2B5B2BDA01C9018F779070A070A5
:10113000B07080349105A105B10539F427FF09C0CD
:10114000205C3F4F4F4F5F4F04C0215C3F4F4F4FDC
:101150005F4FE0E0F0E02030A0E03A07A0E04A076F
:10116000A0E45A0710F0E1E0F0E079018A0127C01D
:101170006038710564F5FB01E158FF4FD801C701E4
:101180008F779070A070B07080349105A105B10583
:1011900039F4E7FE0DC080E490E0A0E0B0E004C0C8
:1011A0008FE390E0A0E0B0E0E80EF91E0A1F1B1FDD
:1011B00017FF05C016950795F794E794319687E0D9
:1011C00016950795F794E7948A95D1F705C0EE2414
:1011D000FF248701EFEFF0E06E2F67956627679594
:1011E000902F9F77D794DD24D7948E2F8695492F03
:1011F000462B582F5D29B701CA011F910F91FF900F
:10120000EF90DF900895FC01DB0140815181228144
:10121000622F6F7770E0221F2227221F9381892F70
:10122000880F822B282F30E0991F9927991F11963C
:101230009C93119721153105A9F5411551056105BB
:10124000710511F482E037C082E89FEF13969C93FA
:101250008E9312979A01AB0167E0220F331F441F50
:10126000551F6A95D1F783E08C930DC0220F331F71
:10127000441F551F12968D919C91139701971396B9
:101280009C938E931297203080E0380780E04807C7
:1012900080E4580758F314962D933D934D935C9337
:1012A000179708952F3F310579F4411551056105D0
:1012B000710519F484E08C93089564FF03C081E004
:1012C0008C9312C01C9210C02F57304013963C9341
:1012D0002E93129783E08C9387E0440F551F661F6F
:1012E000771F8A95D1F7706414964D935D936D9333
:1012F0007C93179708951F93DC01FB019C9192301A
:1013000008F447C08081823008F443C0943051F41F
:1013100011961C91843099F58181682F70E0611BD2
:1013200071093FC0843021F0923031F48230B9F13C
:101330008181882389F12DC011961C9111978230EB
:10134000F1F081811817D9F412962D913C911397E1
:10135000828193818217930794F028173907BCF094
:1013600014968D919D910D90BC91A02D2481358175
:1013700046815781281739074A075B0718F411235C
:1013800041F00AC082179307A407B50740F4112360
:1013900019F061E070E005C06FEF7FEF02C060E020
:1013A00070E0CB011F910895AA1BBB1B51E107C040
:1013B000AA1FBB1FA617B70710F0A61BB70B881FE5
:1013C000991F5A95A9F780959095BC01CD01089574
:1013D0002F923F924F925F926F927F928F929F9245
:1013E000AF92BF92CF92DF92EF92FF920F931F9333
:1013F000CF93DF93CDB7DEB7CA1BDB0B0FB6F894E4
:10140000DEBF0FBECDBF09942A88398848885F8423
:101410006E847D848C849B84AA84B984C884DF8094
:10142000EE80FD800C811B81AA81B981CE0FD11D78
:101430000FB6F894DEBF0FBECDBFED010895F8944E
:02144000FFCFDC
:101442002020546865726D6F6D657465722020008E
:1014520054656D70203D2000604320004E6F742063
:10146200436F6E6E656374656420000000000000C7
:101472000000000001020203030303040404040445
:10148200040404050505050505050505050505050D
:1014920005050506060606060606060606060606ED
:1014A20006060606060606060606060606060606DA
:1014B20006060607070707070707070707070707BD
:1014C20007070707070707070707070707070707AA
:1014D200070707070707070707070707070707079A
:1014E200070707070707070707070707070707078A
:1014F200070707080808080808080808080808086D
:101502000808080808080808080808080808080859
:101512000808080808080808080808080808080849
:101522000808080808080808080808080808080839
:101532000808080808080808080808080808080829
:101542000808080808080808080808080808080819
:101552000808080808080808080808080808080809
:1015620008080808080808080808080808080808F9
:04157200080808005D
:00000001FF
